S00B00005350492E737265632D
S11300000C942A000C9434000C9434000C943400A6
S11300100C9434000C9434000C9434000C9434008C
S11300200C9434000C9434000C9434000C9434007C
S11300300C9434000C9434000C9434000C9434006C
S11300400C9434000C9434000C9434000C9434005C
S11300500C94340011241FBECFE5D8E0DEBFCDBF21
S11300600E944F000C945D000C94000010BC8FE5BE
S113007089B988E18AB98EE880BD08955D9BFECF79
S11300808CB908955F9BFECF8CB1089580EA87BB3D
S113009081E58DB908958FB9779BFECF08958FE5DB
S11300A090E00E9436000E9446000E9442000E9496
S11100B04B008FB10E943E00F8CFF894FFCFB2
S9030000FC
